:020000040800F2
:10C000002830002025C300082DC30008ABE5000838
:10C0100031C3000833C3000835C300080000000026
:10C020008F9E939B089996970201000039C20008E1
:10C0300039C3000864800108C1C2000811C30008A8
:10C040003FC300083FC300083FC300083FC30008C8
:10C050003FC300083FC300083FC300083FC30008B8
:10C060003FC300083FC300083FC300083FC30008A8
:10C070003FC300083FC300083FC300083FC3000898
:10C080003FC300083FC300083FC300083FC3000888
:10C09000291801083FC300083FC300083FC3000838
:10C0A0003FC300083FC300083FC300083FC3000868
:10C0B0003FC300083FC300083FC300083FC3000858
:10C0C0003FC300083FC300083FC300083FC3000848
:10C0D0003FC300083FC3000871F300083FC30008D6
:10C0E0003FC300083FC300083FC3000800F002F848
:10C0F00000F05AF80AA090E8000C82448344AAF1A8
:10C100000107DA4501D100F04FF8AFF2090EBAE8A5
:10C110000F0013F0010F18BFFB1A43F0010318477B
:10C12000F8D5000018D600000A444FF0000C10F8B3
:10C13000013B13F0070408BF10F8014B1D1108BFA5
:10C1400010F8015B641E05D010F8016B641E01F845
:10C15000016BF9D113F0080F1EBF10F8014BAD1C95
:10C160000C1B09D16D1E58BF01F801CBFAD505E0B3
:10C1700014F8016B01F8016B6D1EF9D59142D6D30D
:10C18000704700000023002400250026103A28BF35
:10C1900078C1FBD8520728BF30C148BF0B60704739
:10C1A0001FB51FBD10B510BD00F0DFFA114603B476
:10C1B00005F046FC03BCFFF7F3FF07F069FA00F057
:10C1C000F9FA03B4FFF7EEFF03BC00F0FDFA00003C
:10C1D00080F309887047EFF309807047684680F361
:10C1E000098804480078C00714BF0220032080F3A8
:10C1F000148870471C890108DFF818C0EFF3058325
:10C200001B0618BF6047EFF31483DB0708BF6047C6
:10C2100000DF704705470108DFF818C0EFF305831A
:10C220001B0618BF6047EFF31483DB0708BF6047A6
:10C2300000DF704711490108EFF30980816911F8A7
:10C24000021C39BB90E80F10E047EFF3098C194B43
:10C2500093E80600914218D059B10CB44FF0010395
:10C2600081F821302CE9F00FC1F824C008F0E4FD7A
:10C270000CBC1A60D2F824C0BCE8F00F92F8213050
:10C280008CF309881BB192F82000CCF800006FF005
:10C29000020E704710B5084A1268914209D8074C3F
:10C2A00054F8214090E80F10A047EFF3098C8CE878
:10C2B0000F0010BD20040020D8C70008D8C7000810
:10C2C00008F0A6FC114B93E8060091421BD00CB479
:10C2D0004FF0000381F82130EFF3098C2CE9F00FC7
:10C2E000C1F824C008F0A8FD0CBC1A60D2F824C024
:10C2F000BCE8F00F8CF3098892F821301BB192F85A
:10C300002030CCF800306FF0020E7047200400207F
:10C3100008F054FED6E7000007F03CFC08F04EFEA3
:10C32000D0E700000948804709480047FEE7FEE7DC
:10C33000FEE7FEE7FEE7FEE7FEE7FEE7FEE7FEE7D5
:10C3400004480549054A064B70470000A9EF00085C
:10C35000EDC00008282A002028300020282C0020CA
:10C36000282C002000487047C8290020B2F1200383
:10C370000AD5C2F1200320FA02F001FA03F321FAF0
:10C3800002F140EA0300704721FA03F04FF0000188
:10C39000704740EA010310B59B070FD1042A0DD363
:10C3A00010C808C9121F9C42F8D020BA19BA884296
:10C3B00001D9012010BD4FF0FF3010BD1AB1D307D5
:10C3C00003D0521C07E0002010BD10F8013B11F80B
:10C3D000014B1B1B07D110F8013B11F8014B1B1B34
:10C3E00001D1921EF1D1184610BD10B5431C02E0D8
:10C3F00010F8011B71B18107FAD14FF0013202C868
:10C400008C1A8C4314EAC211F9D0C01A0A0603D060
:10C41000C01E10BDC01A10BD0A0401D0801E10BD80
:10C420000902FCD0401E10BD40EA010370B59B0715
:10C430002ED14FF00136042A2AD308C810C99D1BFB
:10C440009D43121F15EAC61517D0D8B2E1B2401AA3
:10C4500050EA056110D198B2A1B2401A50EA0541E4
:10C460000AD123F07F4024F07F41401A50EA052191
:10C4700002D1180EA0EB146070BDA342DBD018BA35
:10C4800021BA884201D9012070BD4FF0FF3070BD44
:10C490000AB9002070BD10F8013B11F8014B63B1DF
:10C4A000A3420AD1521E08D010F8013B11F8014BEB
:10C4B0001BB1A34201D1521EEDD1181B70BD421E0B
:10C4C00012F8013F002BFBD111F8013B002B02F8C1
:10C4D000013BF9D17047032A40F2308010F0030C81
:10C4E00000F0158011F8013BBCF1020F624498BFC7
:10C4F00011F801CB00F8013B38BF11F8013BA2F164
:10C50000040298BF00F801CB38BF00F8013B11F0DE
:10C51000030300F06780083AC0F0088051F8043B3C
:10C52000083A51F804CBA0E80810F5E7121D5CBFEB
:10C5300051F8043B40F8043BAFF30080D20724BF1E
:10C5400011F8013B11F801CB48BF11F8012B24BFB2
:10C5500000F8013B00F801CB48BF00F8012B704701
:10C56000431A28BF9A427FF6B6AF032A10441144FB
:10C5700040F2268010F0030F1EBF11F8013D521E3D
:10C5800000F8013D10F0030F7FF4F6AF11F0030344
:10C5900000F0C180083AC0F00B8051F8043D083A21
:10C5A00051F804CD40F8043D40F804CDFFF7F3BF47
:10C5B000121D5CBF51F8043D40F8043DAFF300800C
:10C5C000D20724BF11F8013D11F801CD48BF11F881
:10C5D000012C24BF00F8013D00F801CD48BF00F850
:10C5E000012C704710B5203AC0F00B80B1E818500C
:10C5F000203AA0E81850B1E81850A0E81850BFF44D
:10C60000F5AF5FEA027C24BFB1E81850A0E81850EB
:10C6100044BF18C918C0BDE810405FEA827C24BF3F
:10C6200051F8043B40F8043B08BF7047D20728BFCD
:10C6300031F8023B48BF11F8012B28BF20F8023B1C
:10C6400048BF00F8012B704702F0FF0343EA0322C2
:10C6500042EA024200F002B84FF000020429C0F0A2
:10C66000128010F0030C00F01B80CCF1040CBCF124
:10C67000020F18BF00F8012BA8BF20F8022BA1EB76
:10C680000C0100F00DB85FEAC17C24BF00F8012B5B
:10C6900000F8012B48BF00F8012B70474FF0000253
:10C6A00000B5134694469646203922BFA0E80C50A8
:10C6B000A0E80C50B1F12001BFF4F7AF090728BF83
:10C6C000A0E80C5048BF0CC05DF804EB890028BFFF
:10C6D00040F8042B08BF704748BF20F8022B11F028
:10C6E000804F18BF00F8012B7047704770477047A4
:10C6F000431A28BF9A427FF675AF104410F0030F1B
:10C7000011441EBF11F8013D521E00F8013D10F00A
:10C71000030F7FF4F6AF103AC0F00A8010B531E98C
:10C720001850103A20E91850BFF4F9AFBDE8104096
:10C73000530724BF31E9081020E9081044BF51F81D
:10C74000043D40F8043D12F0030F08BF7047D207C4
:10C7500028BF31F8023D48BF11F8012C28BF20F84E
:10C76000023D48BF00F8012C70477546FFF7FAFDFF
:10C77000AE4605006946534620F00700854618B0CE
:10C7800020B5FFF7DDFDBDE820404FF000064FF07B
:10C7900000074FF000084FF0000B21F00701AC46F6
:10C7A000ACE8C009ACE8C009ACE8C009ACE8C00915
:10C7B0008D46704710B50446AFF300802046BDE8B3
:10C7C0001040FFF7FEBC000001491820ABBEFEE799
:10C7D0002600020070470000000000002DE9F04133
:10C7E00002787F2A03D0BDE8F04100F087B801F855
:10C7F000012B447801F8014B861C0D464FF00217BF
:10C8000008E02946304600F079F8074406EB104668
:10C8100080B20544641EF4D23846BDE8F0810000C1
:10C8200070B500240B462246092841D00ADC2D4A67
:10C830000928116953D2DFE800F0525215181C2361
:10C84000282E31004021FC2849D004DCF02835D0C6
:10C85000F12844D134E0FD2841D0FE283CD0FF2807
:10C860003DD135E0184620A11CE01C4606F05EFDD7
:10C8700021E00624224620491846FFF72CFE2EE030
:10C88000184699B1D1F8A41103E0184671B1D1F856
:10C89000A81139B90AE01846D16FFAE71846D2F85C
:10C8A0008010F6E707F014FF044618E0002416E0B5
:10C8B0000C4606F043FD01462046F3E731200CE02C
:10C8C0001970422058700F209870DA70042406E026
:10C8D00019705A70022402E00420187001242046C6
:10C8E00070BD00006480010855494E494F2D434DED
:10C8F0005349532D44415000E88001082DE9F84F79
:10C900000278A2F180031F2B03D800F04FF9BDE895
:10C91000F88FA2F1A0035E2B02D800F0DFF9F6E752
:10C9200001F8012B0C4610F801CBDFF864920025CA
:10C930000127DFF85CA2FF21964B974ADFF85CB233
:10C94000A9F110094FF00116BCF11E0F73D2DFE8F8
:10C950000CF00F17294FC2CBE672F5637372727237
:10C960007272777B8A9AA7BDC0727272727272A35A
:10C970000078611CFFF754FF207000F10210C6E739
:10C98000027822B1012A54D021701846E9E040789B
:10C99000C1074FF0400002D07D49091D00E051461B
:10C9A000086046E0057825B1012D03D000252570EB
:10C9B00057E00125B84617700D21484607F0FAFAEE
:10C9C0004FF400505746CAF800000E21484607F0C1
:10C9D000F1FA4FF48040386001220C21484607F0FC
:10C9E00097FA0021484607F017FBC7F80080DEE7FA
:10C9F000157000220D214E46484607F089FA0022A4
:10CA00000E21304607F084FA00220C21304607F050
:10CA10007FFA25703846A4E001886148614A0068C1
:10CA2000B0FBF2F00322801CB0FBF2F04843401E42
:10CA3000FDD12570A9E7A6E065702570022090E081
:10CA4000214600F047FC8CE086780388C07866F3C6
:10CA50001F43554E53EA00603BD0906002F052FAFB
:10CA6000A5E730467DE010F8016B0EB94FF48076F3
:10CA70000146304602F012FAF61D2570F008000457
:10CA800000F101106DE0007800F00301491C1177FE
:10CA9000C0F3800050778AE7214600F06DF960E02E
:10CAA00021700122144610F8013B0AE010F8011B26
:10CAB00011F03F0100D14021C91DC9080A440844B2
:10CAC000521C5B1EF2D244EA02404AE00078217018
:10CAD000D5E72170C5E701781174B0F80110918293
:10CAE000B0F80300D0824CE012782146012A13D01E
:10CAF0000646401C10F8012B42B110F8013B9C0780
:10CB000001D5DB0600D5001D521EF6D1801B0D702D
:10CB100000044D70801C24E000F078F921E0064606
:10CB20001078214601280AD00D704D70A5700321A0
:10CB3000F078800708D541F4802012E00CE0304600
:10CB400000F030FB0146F3E7B6F801004FF4802215
:10CB500002EB8040084304E01278012A04D02170DF
:10CB6000584600F10110D2E6C278B0F80110007901
:10CB700062F31F4141EA006000906946002001F025
:10CB800011FE2570ECE704F8011C3046BFE60000FA
:10CB9000100C0140010002005405002001000500B6
:10CBA000E802002040420F00010004002DE9FC478C
:10CBB000027801F8012B0D464FF0011410F8011B0B
:10CBC00000226700803906464FF0010804F1010990
:10CBD0000E2975D2DFE801F007141F2E3C7474741F
:10CBE00047535D62667706F0A1FB0646FFF7FDFB43
:10CBF000C4B22C70681C22463146FFF76CFC23E05F
:10CC00000724684602F062FD224669462846FFF77F
:10CC100062FC304C54E0684602F058FD30680090E9
:10CC2000684602F073FD002002F0E6FD85F8008002
:10CC3000294C45E03E21681C09F0ECFE040002D0BE
:10CC4000012006F03BFD2C7004F58034A41C37E075
:10CC50003778701C394609F081FF012006F02EFD5F
:10CC600085F8008028E085F80080307820B1012820
:10CC700002D02A703C4623E006F0A2FEFAE785F8CF
:10CC8000008005F059F810B9022009F061FC4C460B
:10CC900016E0307808F000FC2870EBE708F0CAFBDB
:10CCA0002870F4E716F8017B012006F017FD3946DD
:10CCB000304608F093FC287004EB074404F101149B
:10CCC0002046BDE8FC872A70307800B1012006F0CC
:10CCD00085F8CFE70900010002000500FF20087079
:10CCE0004FF001107047000038B52148816941F0CC
:10CCF00004018161816901F004010091816941F0C1
:10CD000008018161816901F008010091816941F0A8
:10CD100010018161816901F010010091816941F088
:10CD2000200181618069134D00F0200000900D21E9
:10CD3000284607F03FF90F4C6814103420600E218C
:10CD4000284607F037F94FF48040206001220C217B
:10CD5000284607F0DDF80021284607F05DF901209C
:10CD600020600621284607F025F94020206038BDC4
:10CD700000100240000C01402DE9F05F002201F894
:10CD8000012B012510F8018B8A46A94604464FF471
:10CD9000804B32E014F8017B17F03F0000D14020B7
:10CDA000C01DC608380608D500220E21164807F017
:10CDB000AFF815495846103106E00E21124807F029
:10CDC000F9F8114958461431086052462146384650
:10CDD00001F078FCB8F1000F07D10E210A4807F0E6
:10CDE000E9F809491431C1F800B0380602D5B24457
:10CDF000B14401E0344435446D1CB8F10108C9D296
:10CE000049EA0540BDE8F09F000C01402DE9F04FD4
:10CE100087B0054605900020DFF880A3CDE9010129
:10CE20008C1C8AF8000003906978AD1C07465FEA05
:10CE3000010871D015F8016BB1076ED5F7B3DFF8B3
:10CE400060B306F011000128BBF8149007D05746D4
:10CE500069460E2001F0A6FC02280ED013E06946B8
:10CE6000304601F09FFC02280ED1B9F1010903D32D
:10CE70009AF800100029F2D040E1B9F1010902D37B
:10CE800039780029E4D000270128F5D1009904F869
:10CE9000011B0099090A04F8011B0099090C04F808
:10CEA000021B0099090E04F8011C3FB131060ED592
:10CEB000DBF80C1004F8011B0A0A00E007E004F894
:10CEC000012B0A0C04F8022B090E04F8011CF106D0
:10CED00052D5A97835F8030B61F31F4015F8011BF3
:10CEE00040EA01600490AE48B0F816B0F00715D0E3
:10CEF000AB48B0F814900021304601F053FC0228F2
:10CF000002D00128B8D109E0B9F10109B4D39AF8E7
:10CF100000100029EFD0F1E011E187E0A048B0F85F
:10CF200014906946304601F03DFC022802D00128E9
:10CF300016D107E0B9F1010912D39AF800100029BF
:10CF4000EFD00DE09649009A89691140049A914208
:10CF500006D0BBF1010B03D39AF800100029DDD0F5
:10CF60008F49009A89691140049A914201D040F09A
:10CF70001000012817D157E0DFF824B2F107BBF801
:10CF8000149022D007BB0021304601F00BFC022890
:10CF900002D0012807D107E0B9F1010903D39AF8BB
:10CFA00000100029EFD0A9E031060CD5DBF80C10F9
:10CFB00004F8011B0A0A04F8012B0A0C04F8022BDE
:10CFC000090E04F8011C01272EE06946304601F0E5
:10CFD000E9FB022802D0012807D107E0B9F10109D5
:10CFE00003D39AF800100029EFD087E031060CD562
:10CFF000DBF80C1004F8011B0A0A04F8012B0A0CD8
:10D0000004F8022B090E04F8011C009904F8011B16
:10D010000099090A04F8011B0099090C04F8021B85
:10D020000099090E04F8011C002159E01FB35C4867
:10D03000B0F8149069460E2001F0B4FB022802D02B
:10D0400001285BD107E0B9F1010957D39AF8001024
:10D050000029EFD052E0009804F8010B0098000A74
:10D0600004F8010B0098000C04F8020B0098000E65
:10D0700004F8010C0027A97835F8030B61F31F4071
:10D0800015F8011B40EA01600090B10603D5444940
:10D090008861012025E0DFF808B1BBF814906946EB
:10D0A000304601F07FFB022802D0012826D107E09C
:10D0B000B9F1010922D39AF800100029EFD01DE040
:10D0C00031060CD5DBF80C1004F8011B0A0A04F831
:10D0D000012B0A0C04F8022B090E04F8011C012193
:10D0E00003910199491C01919AF8001031B9A8F1F6
:10D0F00001015FEA01087FF49DAE0CE0B8F1000F7A
:10D1000009D015F8011B8A0701D5C90600D52D1DC8
:10D11000A8F10108F2E7012832D10FB320485746A1
:10D12000868A69460E2001F03DFB022802D00128C4
:10D1300026D105E0761E23D339780029F1D01FE0EF
:10D14000009904F8011B0099090A04F8011B0099D1
:10D15000090C04F8021B0099090E04F8011C0FE0E9
:10D16000039969B10E485746868A00210E2001F0C6
:10D1700019FB022804D1761E02D339780029F4D095
:10D18000DDE901121170029948700298211A059880
:10D1900007B0281A41EA0040BDE8F08F00000020E7
:10D1A000540500202DE9F84F0026DFF820810546C0
:10D1B00030468A46CF1C88F80060B5F80140ED1C67
:10D1C000002C77D015F8019BDFF804B15FEA897174
:10D1D0005FD55FEAC97139D0BBF8145000214846C9
:10D1E00001F0E0FA022802D0012863D12EE06D1E82
:10D1F00060D398F800100029F0D05BE024B95FEA12
:10D20000C97001D04FF00E09BBF81450694648466A
:10D2100001F0C8FA022802D001284BD106E06D1EA9
:10D2200048D398F800100029F0D043E0009907F89F
:10D23000011B0099090A07F8011B0099090C07F85E
:10D24000021B0099090E07F8011C761C641ED5D23A
:10D2500030E0A97835F8030B61F31F4015F8011B86
:10D2600040EA016000901A48B0F8148069464846C8
:10D2700001F098FA022802D001281BD107E0B8F18A
:10D28000010817D39BF800100029EFD012E0761C9C
:10D2900000E0C346641EDCD20D485D46848A00214E
:10D2A0000E2001F07FFA022804D1641E02D32978EF
:10D2B0000029F4D08AF80060320A8AF801208AF83E
:10D2C0000200A7EB0A00BDE8F88F00000000002074
:10D2D000540500202DE9F05F8B46057844780279EB
:10D2E0004188407962F31F4141EA00663548E20710
:10D2F00000F1040106D0EB074FF4005201D00260A8
:10D3000000E00A60A20706D5AB074FF4804201D5C2
:10D31000026000E00A60220607D5EA09D3074FF051
:10D32000010201D0026000E00A60DFF898A04FF02F
:10D330000009AAF1040AAAF104087EB32248864231
:10D3400000D9064601F066FE0746E00705D0DAF888
:10D350000000C0F34030A8421BD1A00706D5D8F882
:10D360000000C0F30030B0EB550F12D1600702D5BA
:10D37000B9EB950F0DD1A00602D5B9EB551F08D119
:10D3800020060BD5D8F8000000F00100B0EBD51F47
:10D3900004D001F03FFEC01BB042D6D3DAF8000043
:10D3A000D8F80010C0F34032C1F30031D8F80000C3
:10D3B00042EA410141EAC0108BF800000348BDE891
:10D3C000F09F0000100C0140C0C62D0001000600B7
:10D3D000094910B500220A70084888600A7464235D
:10D3E0008B82CA8201238A610B774A7701F08AFD1A
:10D3F000BDE81040FFF778BC54050020404B4C00BE
:10D400000078832805D0842803D08C2801D00120FF
:10D410007047002070472DE9F0410446D0F808011C
:10D420001E4615460F46002835D00846FFF7E8FF90
:10D4300010B1012006F04AF9402D00DD4025D4F856
:10D4400008012A46401EC4F80801D4F810013946E4
:10D4500004EB8010FFF73FF8D4F8100104EB8011C3
:10D460003846FFF7BBF9D4F8101104EB4101A1F8DD
:10D470000001D4F8100104EB8010306094F8100122
:10D48000401C00F00300C4F81001D4F80C01401C4B
:10D49000C4F80C010120BDE8F081D0F80C31E3B1F3
:10D4A0005B1EC0F80C31D0F8143100EB83130B6015
:10D4B000D0F8141100EB4101B1F80011116090F89F
:10D4C0001411491C01F00301C0F81411D0F808111F
:10D4D000491CC0F808110120704700207047002245
:10D4E000C0F810210421C0F81421C0E9421270478D
:10D4F00001078A0E07490A44D2F8001C000602D52B
:10D5000048F6CF7001E04CF68F700140C2F8001C65
:10D5100070470000005000400207930E0C4A30B5DF
:10D520001344D3F8002C000648F68F7402EA040076
:10D5300048F2800582EA010202D502F0300101E0E2
:10D5400002F4405108432843C3F8000C30BD0000EA
:10D550000050004030B585B00546002400F03CF98D
:10D560000120002103900091CDE9011504A968462E
:10D5700000F092F800B1012400F0E2F805B0204676
:10D5800030BD000006490020C8610648016941F02D
:10D5900004010161016941F040010161704700002F
:10D5A000881B002000200240064A0021D161064964
:10D5B0000A6942F002020A614861086940F04000CD
:10D5C00008617047881B002000200240044B0022A5
:10D5D000DA61044A136943F0010313610180704763
:10D5E000881B0020002002400E49C868C2060E4871
:10D5F00003D5C26942F00202C261CA68520703D56C
:10D60000C26942F00102C261CA69D20707D0C26989
:10D6100042F00402C261C86920F00100C861142010
:10D62000C860704700200240881B002070B5044687
:10D6300000F0CEF90546114E09E0601C07D024B178
:10D6400000F0C6F9401BA04201D9032070BDF0686C
:10D65000C007F2D1F068800601D52020F060F068A4
:10D66000C00605D4F069C00702D1F068400703D5B1
:10D67000FFF7BAFF012070BD002070BD00200240FE
:10D6800031B500F0A5F9044600F0A2F90099001B9D
:10D690008842F9D338BD00002DE9F04705462648F9
:10D6A0000F460126017E01290FD001218146017616
:10D6B0002868DFF888804CF25034022808D0A2464F
:10D6C0002046FFF7B3FFA8B131E00220BDE8F087A4
:10D6D0002046FFF7ABFF08BB0120FFF753FF2046B2
:10D6E000FFF7A4FFD8F81010064621F00401C8F88F
:10D6F00010101CE04FF0FF303860AC6811E020469D
:10D70000FFF752FF5046FFF791FFD8F810100600C0
:10D7100021F00201C8F8101001D03C6007E004F5C8
:10D720008064D5E9020100EB8120A042E7D8002106
:10D7300089F818103046C9E7881B002000200240F5
:10D740000348016941F08001016100207047000039
:10D75000002002402DE9F05F05461D488846002460
:10D76000017E16461F46012909D001218146017616
:10D770004CF2503A5046FFF759FF18B123E002200F
:10D78000BDE8F09F012D02D0022D00D00425D34624
:10D79000DFF840A015E0220130463946FEF7E6FDED
:10D7A00081B208EB4400FFF711FF5846FFF73EFF38
:10D7B000DAF8102022F00102CAF8102018B9641C0F
:10D7C000E4B2AC42E7D3002289F81820D8E7000081
:10D7D000881B00200020024005480169090605D584
:10D7E00004494160044941600020704701207047AE
:10D7F0000020024023016745AB89EFCD2DE9F84FAA
:10D80000DFF8A091002309F1040A0AF1040B1C4679
:10D810004FF00F080BF1040E01270A68A7403A40A9
:10D82000BA4272D1DFF880C14D68A5EB0C066545A0
:10D830002BD00DDC032D34D005DC35B3012D19D0F0
:10D84000022D2FD11BE0112D16D0122D2AD119E057
:10D85000B6F5881F19D006DCB6F5803F15D0B6F5B1
:10D86000801F1FD111E0B6F5001F0ED0B6F5041FC2
:10D8700018D10AE0CB6815E0CB681B1D12E0CB681D
:10D8800008330FE0CB680C330CE08B682BB1012B15
:10D890004FF0080303D0476104E0042302E007616E
:10D8A00000E00023FF2A01D8064601E000F104064B
:10D8B0004FEA840501D9A5F12005376808FA05FC6F
:10D8C00027EA0C0703FA05F547EA050737604D68B4
:10D8D000ED0060D5354DAE6946F00106AE61AD692B
:10D8E00024F0030605F001050095314D7719BE6857
:10D8F000A5072D0F08FA05FC26EA0C06DFF8B4C0D0
:10D90000604503D14FF0000C17E044E0DFF8A8C0F9
:10D91000604502D14FF0010C0FE0DFF8A0C0604578
:10D9200002D14FF0020C08E0DFF894C0604502D14C
:10D930004FF0030C01E04FF0040C0CFA05FC4CEA2C
:10D94000060CC7F808C04D68D9F80060ED034D46D5
:10D9500001D5164300E096432E604D68DAF800606A
:10D96000AD03554601D5164300E096432E604D6841
:10D97000DBF80060ED025D4601D5164300E09643FA
:10D980002E604D68DEF80060AD02754601D5164385
:10D9900000E096432E60641C102CFFF43DAFBDE800
:10D9A000F88F000000040140000011100010024038
:10D9B0000000014000080140000C0140001001403F
:10D9C000001401400AB1016170470904FBE700003F
:10D9D000EFF3108172B607480068406A064B820870
:10D9E0001868121AC2F30D02104481F310881860EF
:10D9F00070470000481B0020E4020020074810B5D3
:10DA0000016841F010010160032000F05DF80F2073
:10DA100000F006F800F056F8002010BD002002408B
:10DA200010B588B005A9684600F020F90398B0F554
:10DA3000806F08D0B0F5A06F35D0B0F5C06F34D08E
:10DA4000B0F5E06F33D001201A494FF08042002436
:10DA50000968B1FBF0F04FF47A61B0FBF1F11648C0
:10DA6000491E02604FF6FF72C0E90324C0E90114A9
:10DA700044611248C16941F00101C161C06900F00F
:10DA8000010006900C4800F042FC002809D10C4827
:10DA90000460094800F057FC002802D1064800F055
:10DAA0006FFC08B010BD0220CEE70420CCE70820B0
:10DAB000CAE70000E8020020481B002000100240D6
:10DAC000E402002070470000064A00F007011068D9
:10DAD0004FF6FF03184040EA012003490843106055
:10DAE000704700000CED00E00000FA052DE9F0475A
:10DAF000DFF8688104460E46D8F8000000F0070001
:10DB0000B0420CD2D8F8001021F007013143C8F818
:10DB10000010D8F8000000F00700B04273D1207860
:10DB20004F4F800705D57868A16820F0F0000843C2
:10DB300078602078C00755D06068012201280CD099
:10DB4000022828D0022393FAA3F1B1FA81F141F01F
:10DB50002001490904D0396803E04FF40033F2E7AB
:10DB6000796A93FAA3F3B3FA83F303F01F039A409D
:10DB7000114248D0796821F0030101437960FFF731
:10DB800027FF0546606841F2883101280CD0022841
:10DB9000894615D022E04FF00073D4E7FFF718FF55
:10DBA000411B494501D916E089467868C0F38100D8
:10DBB0000128F3D116E0FFF70BFF411B49450AD8B6
:10DBC0007868C0F381000228F5D10BE0FFF700FF71
:10DBD000411B494502D90320BDE8F087786810F061
:10DBE0000C0FF3D1D8F80010404601F00701B14204
:10DBF0000BD9016821F0070131430160006800F092
:10DC00000700B04201D00120E6E72078400705D5A3
:10DC10007868E16820F4E0600843786020780007C5
:10DC200006D57868216920F4605040EAC100786028
:10DC300000F06CF87968F02292FAA2F201F0F0019B
:10DC4000B2FA82F2D140074A515CC84006490860E6
:10DC50000F20FFF7E5FE0020BEE700000020024095
:10DC600000100240D4860108E80200200F22026062
:10DC70000C4A536803F003034360536803F0F00356
:10DC80008360536803F4E063C36052684FF4E06359
:10DC900003EAD20202610448006800F0070008604D
:10DCA0007047000000100240002002400848094967
:10DCB000006849684FF4E06292FAA2F201F4E06170
:10DCC000B2FA82F2D140044A515CC8407047000069
:10DCD000E802002000100240E486010808480949D3
:10DCE000006849684FF4605292FAA2F201F4605160
:10DCF000B2FA82F2D140044A515CC8407047000039
:10DD0000E802002000100240E486010810B519A0C6
:10DD100085B00FC88DE80F001AA01B4B0068049057
:10DD200059681A4801F00C02042A1DD0082A1BD198
:10DD30004FF4701494FAA4F401F47012B4FA84F459
:10DD4000E240C9031DF8022010D559684FF4003392
:10DD500093FAA3F301F40031B3FA83F3D94004AB8F
:10DD6000595CB0FBF1F0504305B010BD084850437A
:10DD7000FAE7000002030405060708090A0B0C0D68
:10DD80000E0F1010010200000010024000127A0075
:10DD900000093D002DE9F84F04460078FE4EC0070B
:10DDA0004FF001057FD070684FF40038C0F3810058
:10DDB000012807D07068C0F3810002281BD1706869
:10DDC000C00318D598FAA8F0B0FA80F040F020000F
:10DDD000400901D0306800E0706A98FAA8F1B1FA01
:10DDE00081F101F01F0105FA01F108425BD0606882
:10DDF000002879D057E06068B0F5803F0BD010B1B3
:10DE0000B0F5A02F11D0306820F480303060306839
:10DE100020F4802002E0306840F480303060606898
:10DE200018B3FFF7D5FD074609E0306840F48020BD
:10DE30003060F0E7FFF7CCFDC01B642870D898FA7B
:10DE4000A8F0B0FA80F040F02000400901D030681E
:10DE500000E0706A98FAA8F1B1FA81F101F01F01AF
:10DE600005FA01F10842E5D01DE0FFF7B1FD0746D4
:10DE700004E0FFF7ADFDC01B6428DFD898FAA8F0D6
:10DE8000B0FA80F040F02000400901D0306800E096
:10DE9000706A98FAA8F1B1FA81F101F01F0105FA50
:10DEA00001F10842E5D12078DFF8F08280074FF0D9
:10DEB000000A4FF002075AD570684FF0F80B10F0C7
:10DEC0000C0F07D07068C0F3810002281CD1706865
:10DED000C00319D497FAA7F0B0FA80F040F0200000
:10DEE000400902D0306801E08AE0706A97FAA7F131
:10DEF000B1FA81F101F01F0105FA01F108422BD0BE
:10DF0000206901287CD127E0206988B395FAA5F023
:10DF1000B0FA80F048F82050FFF75AFD814606E03D
:10DF20004DE1FFF755FDA0EB0900022886D897FACE
:10DF3000A7F0B0FA80F040F02000400901D030682E
:10DF400000E0706A97FAA7F1B1FA81F101F01F01C0
:10DF500005FA01F10842E4D030689BFAABF220F0F8
:10DF6000F8016069B2FA82F290400143316025E025
:10DF7000FFE795FAA5F1B1FA81F148F821A0FFF782
:10DF800027FD814605E0FFF723FDA0EB09000228ED
:10DF9000CCD897FAA7F0B0FA80F040F02000400902
:10DFA00001D0306800E0706A97FAA7F1B1FA81F108
:10DFB00001F01F0105FA01F10842E4D120780007C1
:10DFC0006DD5A069B8B395FAA5F0B0FA80F008EB6A
:10DFD0008000C0F88054FFF7FBFC814605E0FFF7A6
:10DFE000F7FCA0EB09000228A0D897FAA7F0B0FA36
:10DFF00080F040F06000B5EB501F02D130680CE0BB
:10E0000063E197FAA7F0B0FA80F040F06000B7EB58
:10E01000501F01D1306A00E0706A97FAA7F1B1FA97
:10E0200081F101F01F0105FA01F21042D7D0012061
:10E03000FFF726FB33E0FFE795FAA5F1B1FA81F18E
:10E0400008EB8101C1F880A4FFF7C2FC814605E01E
:10E05000FFF7BEFCA0EB0900022899D897FAA7F0B9
:10E06000B0FA80F040F06000B5EB501F01D130688D
:10E070000BE097FAA7F0B0FA80F040F06000B7EB41
:10E08000501F01D1306A00E0706A97FAA7F1B1FA27
:10E0900081F101F01F0105FA01F21042D8D1207878
:10E0A000400763D5F06940F08050F061F069DFF817
:10E0B000F0B000F080500090DBF8001041F4807167
:10E0C000CBF80010FFF784FC814605E0FFF780FCE9
:10E0D000A0EB0900642872D8DBF80000C005F5D574
:10E0E000E06801280AD008B1052813D0306A20F072
:10E0F00001003062306A20F0040002E0306A40F033
:10E1000001003062E06841F2883B80B3FFF760FCB9
:10E1100081460AE0306A40F004003062EEE7FFF723
:10E1200057FCA0EB0901594549D897FAA7F0B0FA76
:10E1300080F040F04000B5EB501F01D130680BE09B
:10E1400097FAA7F0B0FA80F040F04000B7EB501F0C
:10E1500001D1306A00E0706A97FAA7F1B1FA81F153
:10E1600001F01F0205FA02F10842D8D033E0FFE7C0
:10E17000FFF72EFC814605E0FFF72AFCA0EB090122
:10E1800059451CD897FAA7F0B0FA80F040F040004B
:10E19000B5EB501F08D105E00010024000004242DC
:10E1A0000070004030680CE097FAA7F0B0FA80F0F9
:10E1B00040F04000B7EB501F02D1306A01E08AE026
:10E1C000706A97FAA7F1B1FA81F101F01F0205FA1E
:10E1D00002F10842D0D1E06998B37168C1F38101BE
:10E1E000022972D002284FF080714FF0007B504618
:10E1F0000AD091FAA1F1B1FA81F148F82100FFF7B4
:10E20000E7FB04465F4669E08A4691FAA1F1B1FA5C
:10E2100081F1C14648F82100FFF7DAFBA84607461E
:10E220005D4604E0FFF7D4FBC01B022853D895FAE3
:10E23000A5F0B0FA80F040F02000400902D030682C
:10E2400001E060E0706A95FAA5F1B1FA81F101F0A0
:10E250001F0208FA02F10842E4D1206AB0F5803FBB
:10E2600005D17068A16820F4003008437060D4E9DB
:10E2700008010843716821F47411084370609AFA28
:10E28000AAF0B0FA80F0474649F82080FFF7A0FBDB
:10E29000044604E0FFF79CFB001B02281BD895FAFC
:10E2A000A5F0B0FA80F040F02000400901D03068BD
:10E2B00000E0706A95FAA5F1B1FA81F101F01F0151
:10E2C00007FA01F10842E5D01DE01EE0FFF780FBF0
:10E2D000001B022802D90320BDE8F88F97FAA7F0A7
:10E2E000B0FA80F040F02000400901D0306800E032
:10E2F000706A97FAA7F1B1FA81F101F01F0105FAEE
:10E3000001F10842E2D10020E6E70120E4E710B580
:10E310000446022084F839002068016A41F2111293
:10E32000114207D1016A9210114203D1016821F014
:10E3300001010160204600F021F8002084F8390036
:10E3400084F8380010BD10B5040003D094F83900EB
:10E3500010B107E0012010BD002084F838002046ED
:10E3600000F00DF8022084F83900211D206800F02B
:10E3700061FE012084F83900002010BD704770470D
:10E38000022180F8391001680A6842F001020A602F
:10E39000012180F839100020704770B5044690F8CC
:10E3A00038000D4601280DD0012684F8386002207F
:10E3B00084F8390042B1042A18D0082A2AD00C2A3D
:10E3C0004DD139E0022070BD206800F071FE206858
:10E3D000816941F0080181612068816921F00401AF
:10E3E0008161206881692A69114311E0206800F089
:10E3F0008BFE2068816941F4006181612068816938
:10E4000021F480618161206881692A6941EA0221E1
:10E41000816124E0206800F0A5FE2068C16941F018
:10E420000801C1612068C16921F00401C16120684F
:10E43000C1692A69114311E0206800F0BFFE20681D
:10E44000C16941F40061C1612068C16921F4806142
:10E45000C1612068C1692A6941EA0221C16184F869
:10E460003960002084F8380070BD10B504460220E1
:10E4700084F839002068016A41F21112114207D173
:10E48000016A9210114203D1016821F0010101607B
:10E49000204600F021F8002084F8390084F8380084
:10E4A00010BD10B5040003D094F8390010B107E096
:10E4B000012010BD002084F83800204600F00DF83F
:10E4C000022084F83900211D206800F0B3FD0120EE
:10E4D00084F83900002010BD7047704710B504461D
:10E4E0000068012200F0D8FD07492068884203D166
:10E4F000416C41F4004141642068016841F0010130
:10E500000160002010BD0000002C014070B5040027
:10E5100018D0022084F839002068C16821F4005125
:10E52000C16020680025C5602068056120684561DC
:10E53000204600F038F8E56384F8395084F8385004
:10E54000002070BD012070BD70B5040004D094F8A7
:10E550003900002510B106E0012070BD84F8385064
:10E56000204600F021F8022084F839002068C168B4
:10E5700021F40051C160204600F042FE206801698C
:10E5800021F4904101612068416921F02A01416133
:10E590002068C16841F40051C160E563012084F83E
:10E5A0003900002070BD7047704703F09FF90020CC
:10E5B00070471CB507F092FA00281BD09E208DF8FA
:10E5C0000000E7208DF801006946102000F066FC8D
:10E5D00007F084FA00280DD000208DF8000069466D
:10E5E000082000F05BFC01A9002007F00BFA0128CD
:10E5F00000D000201CBD000070B5104C0D2120463D
:10E6000005F0F1FC0D4D6014103528600E212046F8
:10E6100005F0E9FC4FF48040286001220C212046DF
:10E6200005F09FFC206820F00F002060206840F07B
:10E63000070020600120286070BD0000000C014030
:10E640002DE9F04117460D4680460026FFF7C4F835
:10E65000A80706D000206E220DA103F0F2F90024D5
:10E660000DE00120F7E757F8242008EB8401002390
:10E670000220FFF76FF808B1012603E0641CB4EB39
:10E68000950FF0D3FFF75CF83046BDE8F08100004D
:10E690002E2E5C2E2E5C2E2E5C736F757263655C65
:10E6A0006869635F68616C5C73746D33325C73744A
:10E6B0006D33326631303378625C666C6173682E1C
:10E6C000630000002DE9F00710F03F0308BF40236E
:10E6D00010F0800FDFF8C090DFF8C0A04FF40054B6
:10E6E000A9F104062CD0002B12BFDFF8B480BDE8DE
:10E6F000F007704700274FF0080CDAF8045010E0DC
:10E70000491EFDD1D8F800003460C0F3003128461E
:10E71000401EFDD178085B1E40EAC117BCF1010C18
:10E7200005D0002B1CBFC9F800402946E8D127FAC4
:10E730000CF002F8010B002BDCD1BDE8F0077047AC
:10E74000002B19BF4FF4804CDAF80420BDE8F00725
:10E75000704700BF11F8015B082712E0E80714BFFB
:10E76000C6F800C0C9F800C0C9F800401046401EF5
:10E77000FDD134601046401EFDD16D085B1E7F1E2A
:10E7800004D0002BEAD1BDE8F0077047002BE1D19F
:10E79000BDE8F00770470000140C0140540500204C
:10E7A000080C0140034A52780AB100F005B800F0A5
:10E7B00055B90000540500202DE9F04FA04F4FF44B
:10E7C000804AC7F800A07E143D1D2E603E60C2073F
:10E7D00014BFC7F800A0C5F800A02E603E60420834
:10E7E0005FEAC27C14BFC7F800A0C5F800A02E6085
:10E7F0003E60830802445FEAC37C14BFC7F800A0F0
:10E80000C5F800A02E603E601344C2085FEAC27CD7
:10E8100014BFC7F800A0C5F800A02E603E601A44DF
:10E82000D20714BFC7F800A0C5F800A02E603E6054
:10E83000C5F800A02E603E60C7F800A02E603E60C4
:10E84000DFF800B2DBF8042022F07062CBF804207D
:10E85000DBF80420CBF80420C7F800A0DFF8E8E1DB
:10E860009EF81C20131E03D02E603E60521EFBD16A
:10E870002E60DFF8D891D9F800203E60C2F3003254
:10E880002E60D9F800C03E60CCF3003C42EA4C0256
:10E890002E60D9F800C03E60CCF3003C42EA8C0206
:10E8A000012A1DD0022A18BF042A7DD013F12100AD
:10E8B00003D02E603E60401EFBD1DBF8040020F048
:10E8C0007060CBF80400DBF8040040F04070CBF837
:10E8D0000400C5F800A0C7F800A01046BDE8F08FFE
:10E8E00010F0020F4AD00024A04620232E60D9F851
:10E8F00000C03E60CCF3003C6408E04444EACC74C1
:10E900005B1EF3D12E60D9F800303E6088EA1333E5
:10E9100013F0010F18BF0822002918BF0C609EF8E1
:10E920001C1019B12E603E60491EFBD1DBF80410AB
:10E9300021F07061CBF80410DBF8041041F0407155
:10E94000CBF80410C5F800A010F0800F0AD04048A2
:10E9500040490068B0FBF1F03F494968B1FBF0F075
:10E96000CEF80C009EF81000002818BFC5F800A0D3
:10E9700061D02E603E60401EFBD15CE01BB12E607A
:10E980003E605B1EFBD1DBF8043023F07063CBF8F4
:10E990000430DBF8043043F04073CBF80430C5F8A2
:10E9A00000A00968002300E017E04FF0200CCC071E
:10E9B00014BFC7F800A0C5F800A02E603E600B444D
:10E9C0004908BCF1010CF2D1D90714BFC7F800A067
:10E9D000C5F800A02E603E60B6E79EF81DC0BCF1F1
:10E9E000000F1CBF10F0020F212103D02E603E60EB
:10E9F000491EFBD11BB12E603E605B1EFBD1DBF8D4
:10EA0000041021F07061CBF80410DBF8041041F021
:10EA10004071CBF80410C5F800A0BCF1000F0AD07B
:10EA200010F0020F04BFC5F800A0212003D12E6012
:10EA30003E60401EFBD1C7F800A01046BDE8F08F35
:10EA4000100C0140000C014054050020080C01404E
:10EA5000E802002040420F00001000E02DE9F04FD6
:10EA6000DFF810A44FF4804E4FF0000CCAF800E01D
:10EA70000AF104094FF40057C9F80070FE4D6A68A6
:10EA800013465B1EFDD1CAF8007013465B1EFDD114
:10EA9000C30714BFCAF800E0C9F800E0C9F8007065
:10EAA00013465B1EFDD1CAF8007013465B1EFDD1F4
:10EAB0000CEB00044FEA500C5FEACC7314BFCAF8A9
:10EAC00000E0C9F800E0C9F8007013465B1EFDD1F4
:10EAD000CAF8007013465B1EFDD164444FEA900CE7
:10EAE0005FEACC7314BFCAF800E0C9F800E0C9F8C7
:10EAF000007013465B1EFDD1CAF8007013465B1E02
:10EB0000FDD164444FEAD00C5FEACC7314BFCAF85D
:10EB100000E0C9F800E0C9F8007013465B1EFDD1A3
:10EB2000CAF8007013465B1EFDD104EB0C03DB0733
:10EB300014BFCAF800E0C9F800E0C9F80070134635
:10EB40005B1EFDD1CAF8007013465B1EFDD1C9F8EB
:10EB500000E0C9F8007013465B1EFDD1CAF80070D2
:10EB600013465B1EFDD1CAF800E0C9F800701346D9
:10EB70005B1EFDD1CAF8007013465B1EFDD1BF4B72
:10EB8000D3F804C02CF0706CC3F804C0D3F804C0F0
:10EB9000C3F804C0CAF800E02C7FB4F1000C0BD01D
:10EBA000C9F8007013465B1EFDD1CAF80070134609
:10EBB0005B1EFDD1641EF3D1C9F8007013465B1EC5
:10EBC000FDD1DFF8BCB2DBF80030CAF80070C3F347
:10EBD00000331446641EFDD1C9F800701446641E4B
:10EBE000FDD1DBF80040CAF80070C4F300341646CB
:10EBF000761EFDD143EA4403C9F800701446641E32
:10EC0000FDD1DBF80040CAF80070C4F300341546AB
:10EC10006D1EFDD143EA8408B8F1010F24D0B8F18C
:10EC2000020F18BFB8F1040F72D01CF121010BD0F4
:10EC3000C9F800701046401EFDD1CAF80070104699
:10EC4000401EFDD1491EF3D18C48416821F070610E
:10EC50004160416841F040714160C9F800E0CAF884
:10EC600000E04046BDE8F08F10F0020F51D00026C2
:10EC700035464FF0200C00BFC9F8007013465B1EEC
:10EC8000FDD1DBF80030CAF80070C3F3003413463E
:10EC90005B1EFDD17308254443EAC476BCF1010C28
:10ECA000EAD1BC46C9F80070734C13465B1EFDD117
:10ECB000DBF80030CAF800C0C3F30033521EFDD1A8
:10ECC00085EA030212F0010F18BF4FF0080800296F
:10ECD00018BF0E60257F002D18BF63680CD000BFE1
:10ECE000C9F800C01A46521EFDD1CAF800C0194624
:10ECF000491EFDD16D1EF3D160494A6822F0706251
:10ED00004A604A6842F040724A60C9F800E047E051
:10ED100069E0BCF1000F0CD0C9F8007013465B1E0F
:10ED2000FDD1CAF8007013465B1EFDD1BCF1010C89
:10ED3000F2D1524BD3F804C02CF0706CC3F804C06D
:10ED4000D3F804C04CF0407CC3F804C0F446C9F8C2
:10ED500000E000240B682025D90714BFCAF800C0C2
:10ED6000C9F800C0C9F800701146491EFDD1CAF8A3
:10ED700000701146491EFDD11C445B086D1EEBD18D
:10ED8000E10714BFCAF800C0C9F800C03B46C9F883
:10ED900000701146491EFDD1CAF80030521EFDD147
:10EDA00010F0800F0AD0374837490068B0FBF1F007
:10EDB00036494968B1FBF0F02F49C8602E48027C03
:10EDC000002A1CBFC9F800E0416851D0C9F80070A2
:10EDD0000846401EFDD1CAF800700846401EFDD10D
:10EDE000521EF3D144E024494C7F002C1CBF10F08C
:10EDF000020F21230CD000BFC9F800701146491E34
:10EE0000FDD1CAF800701146491EFDD15B1EF3D139
:10EE1000BCF1000F0DD000BFC9F800701146491EAB
:10EE2000FDD1CAF800701146491EFDD1BCF1010C9C
:10EE3000F2D112494B6823F070634B604B6843F08A
:10EE400040734B60C9F800E094B110F0020F04BFAA
:10EE5000C9F800E021210BD1C9F800701046401E0E
:10EE6000FDD1CAF800701046401EFDD1491EF3D1F5
:10EE70000EE00000100C014054050020000C014081
:10EE8000080C0140E802002040420F00001000E0A2
:10EE9000CAF800E04046BDE8F08F00002DE9F0011F
:10EEA000441E3CBFBDE8F00170474FF480474FF46B
:10EEB00000581348114DD0F804202E1F11F8013BC3
:10EEC0004FF0080C13F0010F14BF37602F60C5F826
:10EED00000801046401EFDD1C6F800801046401E3E
:10EEE000FDD15B08ACF1010C641E3CBFBDE8F00134
:10EEF0007047BCF1000FE5D1E0E70000140C0140C1
:10EF0000540500200C490D4A0968B0EB910F02D35B
:10EF1000012050700DE000EB5101491EB1FBF0F0F3
:10EF200000235370022803D90321B0FBF1F000E065
:10EF30000120506070470000E802002054050020C6
:10EF4000144A10B55068144B10F00C01134803D04C
:10EF5000042901D0082901D0036012E051685368E8
:10EF600001F470114FF0020413F4803F04EB91415F
:10EF700002D053689B0301D5094B00E0064B59436F
:10EF800001605168074AC1F30311515C0268CA402D
:10EF9000026010BD0010024000127A00E80200205A
:10EFA00000093D00D48601080D48016841F00101C7
:10EFB000016041680B4A1140416001680A4A1140F2
:10EFC0000160016821F480210160416821F4FE01A3
:10EFD00041604FF41F0181600449C003086070471D
:10EFE000001002400000FFF8FFFFF6FE08ED00E011
:10EFF000BFF34F8F05480168054A01F4E0611143F2
:10F000000160BFF34F8F00BFFDE700000CED00E093
:10F010000400FA05044805490068B0FBF1F0044912
:10F020004968B1FBF0F07047E802002040420F0051
:10F03000001000E0F0B50268144C154D154E4FF06D
:10F040008047A04205D0B84203D0A84201D0B042C8
:10F0500003D122F070034A681A43A04205D0B84297
:10F0600003D0A84201D0B04203D122F44073CA6851
:10F070001A4302608A68C2620A688262A04201D1B1
:10F080000969016301214161F0BD0000002C0140CC
:10F09000000400400008004010B50123046A8B40C2
:10F0A0009C430462036A8A401343036210BD00005C
:10F0B00030B5026A22F001020262036A4268846982
:10F0C00024F073050C682C4323F002058B682B4356
:10F0D0000C4DA84206D123F00805CB6843EA05038E
:10F0E00023F0040307D14D6922F4407245EA02057A
:10F0F0008A6942EA050242608461496841630362A9
:10F1000030BD0000002C014030B5026A22F0100230
:10F110000262026A436884690D6824F4E64444EAA2
:10F1200005248D6822F0200242EA05120C4DA84207
:10F1300006D1CD6822F0800242EA051222F0400298
:10F1400007D14D6923F4406343EA85038D6943EA9F
:10F1500085034360846149688163026230BD0000B9
:10F16000002C014030B5026A22F480720262036A08
:10F170004268C46923F4007324F073050C682C43BF
:10F180008D6843EA05230C4DA84206D1CD6823F4CF
:10F19000006343EA052323F4806307D14D6922F419
:10F1A000405242EA05128D6942EA05124260C4618A
:10F1B0004968C163036230BD002C014030B5026A6A
:10F1C00022F480520262036A4268C4690D6824F422
:10F1D000E64444EA05248D6823F4005343EA0533EA
:10F1E000064DA84204D14D6922F4804242EA8512BC
:10F1F0004260C46149680164036230BD002C014073
:10F200002DE9F041044600680169E26821F44051AB
:10F2100011430161A16820690143606901432068CD
:10F22000C26841F20C639A430A43C2602068416994
:10F23000A26921F44071114341614C492068642660
:10F24000322788423CD1FEF749FD00EBC00101EBBB
:10F25000001061688900B0FBF1F5FEF73FFD00EB9F
:10F26000C00101EB00106168B8468900B0FBF1F005
:10F27000B0FBF6F06FF01801484305EB800107EB97
:10F280000110B0FBF6F000F0F005FEF727FD00EBF3
:10F29000C00101EB001061688900B0FBF1F0B0FB28
:10F2A000F6F005EB0015FEF719FD00EBC00101EBD0
:10F2B000001061688900B0FBF1F7FEF70FFD3BE03D
:10F2C000FEF7F4FC00EBC00101EB0010616889005F
:10F2D000B0FBF1F5FEF7EAFC00EBC00101EB00101A
:10F2E0006168B8468900B0FBF1F0B0FBF6F06FF052
:10F2F0001801484305EB800107EB0110B0FBF6F065
:10F3000000F0F005FEF7D2FC00EBC00101EB0010AD
:10F3100061688900B0FBF1F0B0FBF6F005EB001579
:10F32000FEF7C4FC00EBC00101EB0010616889002E
:10F33000B0FBF1F7FEF7BAFC00EBC00101EB0010E7
:10F3400061688900B0FBF1F0B0FBF6F06FF01801D6
:10F35000484307EB800108EB0110B0FBF6F0216891
:10F3600000F00F0028448860BDE8F08100380140BB
:10F3700070B515480468154DA00612D52868C6B2A8
:10F38000134802F0F1FB132804D93146104802F06B
:10F390004FFC06E005D14FF013020EA10C4802F01D
:10F3A0009AFC200607D5104802F0EBFB20B10E486E
:10F3B00002F002FC286070BD0448083001680B4A66
:10F3C0001140016070BD0000004400400444004052
:10F3D000B81D00203C4441504C696E6B3A4F766535
:10F3E00072666C6F773E0A00A81B00207FFFFFEF5C
:10F3F000002070470348D0E90410081A0249098820
:10F40000081A7047840400200A87010870B50B4D64
:10F410000C460346D5E90C0188420BD9401A8442B8
:10F4200000DD044622461846FDF755F8686B204477
:10F43000686300E00024204670BD000084040020C2
:10F44000002070472DE9F041194F0C460646D7E9D8
:10F450000401401A17490988081A002802DC002014
:10F46000BDE8F081844200DD0446D7E906020025AC
:10F4700090420FD3104B021919448A420AD30D1A35
:10F4800098462A463146FDF726F82E44641B40462E
:10F49000C7F8188034B122463146FDF71CF8B86928
:10F4A0002044B8613969601901443961D8E7000026
:10F4B000840400200A8701089221002010B5054C21
:10F4C0006068002805D10120606000F005F8002088
:10F4D000606010BD840400202DE9F047244CA06832
:10F4E00000283ED0D4E90401421AE0684FF000063B
:10F4F00052EA000137D021461E4FC969DFF87880F3
:10F50000DFF878901E4D7AB1A069814205D3388822
:10F510008B182844834200D3421A99F8003038F8F7
:10F520001300904200DA02461648E660007840F088
:10F53000800002F047F9E1690144E1616269024437
:10F5400062613B882B448B4200D1E5612169914285
:10F550000BD199F8002038F81210814205D1012012
:10F56000E060BDE8F087A660FBE7E660F9E7000031
:10F57000840400200A8701080E870108C7040020C0
:10F58000922100200887010810B50B4C206A18B1A1
:10F59000A06A401CA06210BD01202062606200F0E1
:10F5A0000DF8002060622062D4E90C018842F2D09C
:10F5B000401AFFF745FF10BD8404002010B5134C1E
:10F5C0001348164B216B0A1A12481B780088821ABE
:10F5D000114830F8130082420EDB1148007801F028
:10F5E00033FD216B08442063A06A00280CD0616AB7
:10F5F000002909D1401E06E00120E062606A00286F
:10F6000002D0A06A401CA06210BD0000840400204B
:10F61000D22100200C8701080E870108C7040020B2
:10F620000987010810B50446400702D52046FFF7B8
:10F63000ABFF200704D52046BDE81040FFF73EBFD2
:10F6400010BD7047002070470020704710B50B4870
:10F6500000F03CF8002810D0084A094811680170F1
:10F660000B0A43700B0C8370090EC1701179017184
:10F670005179417191798171012010BDBC04002044
:10F68000902000200E4810B5002141608160C160CB
:10F690000C4A0161C0E90512C0E9072141620A4A2A
:10F6A0008162C0E90B124263018038304FF4165278
:10F6B0000260017141710821817100F015F810BDDF
:10F6C0008404002092210020D221002005490A68EC
:10F6D00002600A7982714A79427189790171012047
:10F6E000704700004C05002010B507F03BF903F00F
:10F6F000FDFF012010BD10B507F094F9012010BDE9
:10F7000010B507F029FA012010BD00000649026873
:10F710000A6082790A7142794A7100798871002001
:10F72000C871084607F090B94C05002010B5104884
:10F730000024104944608460C4600461C0E905414C
:10F74000C0E9071444620C498462C0E90B4141637B
:10F750000480FFF7D0FF06484FF41651383001609F
:10F760000471447108218171FFF7D0FF10BD0000C2
:10F770008404002092210020D221002010B5FFF740
:10F78000D5FF10BD70B51948007800282DD0184C51
:10F7900000250126206A50B9D4E90C01884206D11F
:10F7A0001449884203D02163E56225626163A06A3F
:10F7B00070B1206A60B9E06A50B92662FFF7FEFEB8
:10F7C0002562D4E90C01884202D0401AFFF738FEC6
:10F7D000D4E90101084308D1D4E90401884204D0E6
:10F7E0006660A660FFF778FE656070BDC504002006
:10F7F00084040020D221002070B505460D48006821
:10F80000C1698847A0B90C4C35B104F0F7F8206005
:10F81000002006F09DFE0BE004F0F0F82168401A8D
:10F82000B0F5967F01D3012000E0002003F066FFD1
:10F83000012070BDC08101084805002000207047EC
:10F8400000207047024910B50880FFF759FF10BD2E
:10F85000840400200A4810B58278018862F31F41B1
:10F86000C27841EA026207490A6002790A71427964
:10F870004A71807988710846FFF748FF10BD000083
:10F8800090200020BC04002000B50346FDF730FEA8
:10F8900043F2300118465DF804EBFDF73DBE000071
:10F8A000F0B58278204D02F00F0316066F6881884C
:10F8B0002C8802F00F0207EB021204D5491C21F03C
:10F8C0000101146011E094603E2909D91F3121F033
:10F8D0001F014FF0FF3404EB411444F4004403E0F3
:10F8E000491C21F001014C02D4602A880A442A8074
:10F8F000C07810F0030006D0012807D0022808D0F5
:10F9000003280AD107E04FF4007106E04FF480614C
:10F9100003E0002101E04FF4C061044A194302EB07
:10F920008300C0F8001CF0BDF80300200050004028
:10F93000002802D10149D02008807047F803002038
:10F9400000F0C8BA0949CA1350B10120086000206C
:10F9500008600B1D18604FF4E0500860044803E095
:10F96000032008600248001D02607047405C0040B0
:10F970001008014010B50B4C0B48A2880078824259
:10F9800000D902461AB907490020143908718020AD
:10F99000216801F017FF216801442160A188081A3D
:10F9A000A08010BDD8040020EF86010810B5064CD9
:10F9B0000020A288216801F047FB216801442160F2
:10F9C000A188081AA08010BDD8040020704700212B
:10F9D000FDF7A2BD43F22001FDF79EBD2DE9F047E2
:10F9E0006E4F0446A7F1080580074FF00009A5F106
:10F9F000140622D501F0B0FE3878C009FFF7E6FF03
:10FA0000F888A8803878C0F3411121B101295AD073
:10FA100002296FD165E07978DFF884810C2969D2F9
:10FA2000DFE801F0060C6813681827682B313846A8
:10FA300001F032FC1FE0FFF79DFF67E0002005E0CA
:10FA400001F09AFED8F8000039E0012001F062FCD4
:10FA5000C0B3F5E710F01F0F4CD1B878012140F08A
:10FA60008000307000F07F0001F068FE01F084FE3D
:10FA70004CE001F011FB28B3DDE710F01F0F39D186
:10FA800046481B3812E001F095FCD8B101F074FE35
:10FA9000444813E000F01F0001282BD1707888B192
:10FAA0003879B178884225D23F4908442860C2E7B6
:10FAB00001F044FD30B101F05FFE3C48006828B31E
:10FAC000804723E016E010F01F0013D0012811D169
:10FAD00000F004F9D0B900F05DF9B8B900F0AEF863
:10FAE00007E010F01F0F05D100F082F970B900F0A7
:10FAF000C3F958B93878000603D4F88808B1002053
:10FB000000E0802001F024FEA5F80490600721D5D4
:10FB1000387800061CD4A888E0B1FFF747FFA88812
:10FB2000C0B93878C0F3411161B101290AD110F090
:10FB30001F0007D0012805D100F062F850B900F08D
:10FB400037F838B9802001F003FEA5F8049001E0F1
:10FB500001F018FE200712D53878000606D5A888CF
:10FB6000317908430BD0FFF705FF08E03078010634
:10FB700005D500F07F003070002101F0DFFD600648
:10FB800002D50020FFF780FE200604D5BDE8F0472F
:10FB90008020FFF779BEBDE8F0870000E004002078
:10FBA0007087010868870108EB0300206C87010853
:10FBB00010B51049104A08791278904203D00F4AC4
:10FBC0001278904214D1487820B1022805D020281C
:10FBD0000ED10AE0FFF732FE02E04888FFF730FE60
:10FBE00030B101F0C9FD012010BDFFF733FEF7E78A
:10FBF000002010BDE0040020F4020020F5020020E7
:10FC000010B50B490B4A08791278904203D00A4A82
:10FC10001278904209D14878092806D100F064FB97
:10FC200018B101F0A9FD012010BD002010BD000099
:10FC3000E0040020F7020020F902002070B52249FC
:10FC4000224A08791278904203D0214A12789042D1
:10FC500037D11D4849781F4C1F4D408804291FD0BB
:10FC600007DC79B101290FD002290BD0032928D153
:10FC700011E0202906D0212919D022291AD02329C0
:10FC80001FD11AE02C6010E0FFF7DEFC05E02C60CD
:10FC9000FFF770FE09E0FFF7D5FC0028F7D110E070
:10FCA000FFF7A6FB0BE001F067FD012070BDFFF739
:10FCB000CDFCF2E7FFF7C6FD01E0FFF79DFD002850
:10FCC000F1D1002070BD0000E0040020F40200200B
:10FCD000F502002090200020D80400202DE9F041FA
:10FCE000244E254930790978884203D02349097880
:10FCF00088423CD17078224C224D234F0C2836D2BA
:10FD0000DFE800F03506212C353535353516243140
:10FD100000F006FA58B3F078012802D0032803D087
:10FD200003E01A48206000E02560FFF723FE12E0A0
:10FD3000F078022802D0032803D00CE01448206099
:10FD400009E0256007E000F0D3F909E000F0A6FA29
:10FD50000BE001F011FD0120BDE8F08100F0D6F9C3
:10FD600028B12760E1E700F0B5FA0028F1D10020C2
:10FD7000F2E70000E0040020F7020020F902002072
:10FD8000D8040020F603002090200020D12000207D
:10FD90001221002010B51248124A017912789142BE
:10FDA0001BD142784188C088FE2A09D0FF2A14D18D
:10FDB00099B990B901F098F878B101F0DDFC0AE04A
:10FDC00059B9012809D100F0A7FD30B1074906480B
:10FDD0000860FFF7CFFD012010BD002010BD00001E
:10FDE000E0040020F802002090200020D804002029
:10FDF00070B51B4D1B4900266878097888422CD1C4
:10FE0000A888022829D1184CAA7812B3002003E050
:10FE1000217801B10C44401C411C8A42F8D820785A
:10FE2000B0B103F03DFA0146E01CFCF748FB0F4A75
:10FE3000012614602078E98881420BD90C49908012
:10FE40000978491E084206D10A490120087002E0DB
:10FE5000002602E09180FFF78DFD304670BD000066
:10FE6000E004002012870108AC030020D804002021
:10FE7000EF860108C804002010B5104A104900247C
:10FE800050780978884217D19088072814D10E4BF2
:10FE90000C48012418600189D2888A4209D90B488C
:10FEA00099800078401E014204D109490120087060
:10FEB00000E09A80FFF75EFD204610BDE0040020C0
:10FEC00013870108FE020020D8040020EF860108F5
:10FED000C8040020074800214170C16001614161F0
:10FEE000418081808161C161C18001810162418164
:10FEF00070470000E80400202DE9F047494EB08823
:10FF000071884A4FDFF820817D1C0024884216D377
:10FF1000B069A0B97461B480012339787A1C18469D
:10FF200007F0A4F87080708848B1776198F80000F5
:10FF3000012801D8756102E07088401C70807088CB
:10FF40004FF00109B0BBF06808B1F46032E03169EC
:10FF500081B398F8000001280DD83C70B4800223CA
:10FF60007A1C0021012007F081F87080708800B1B0
:10FF7000756134611EE03D78C846202D00D3002510
:10FF800008FA05F0084218D0681CC1B23970B48074
:10FF900002237A1C012007F069F87080708818B17C
:10FFA00077617088401C7080306908FA05F820EA93
:10FFB00008003061708830B902E06D1CEDB2DCE7FA
:10FFC000B069002829D07088B188DFF86880401AAD
:10FFD00085B2174F98F8000037F81000A84200D2F9
:10FFE00005461548007828B140F080002A4671691E
:10FFF00001F0E8FB7069114928447061B088284419
:020000040801F1
:1000000080B2B0800988884209D298F8000037F899
:100010001000A84203D1C6F81890BDE8F087B4617B
:10002000FBE70000E8040020FA860108D020002049
:10003000F6860108C7040020F0860108FC86010846
:10004000F8B51C4C1C4D1D4F2089002618B9E561E0
:100050003888E0802681E0882189421A1848E169C1
:10006000007800F0F1FF0004E169000C0144E16157
:10007000218901448BB2238109D039888B4206D271
:10008000114A1049127831F81210814210D90F48E4
:10009000017801200129009003D80021064A02209E
:1000A00003E029786A1C02205B1E07F071F82681A4
:1000B000F8BD0000E804002011210020FE860108A0
:1000C000F1860108F6860108C7040020FB860108B6
:1000D00010B50446000702D52046FFF70DFF600764
:1000E00004D52046BDE81040FFF7AABF10BD0000B0
:1000F000034804498078085C034908700120704770
:10010000E0040020F40300209020002010B506F049
:10011000ABFF02490870012010BD000090200020B4
:100120000B4910B5C8780022012804D0022804D059
:10013000032806D103E0074A02E0002010BD064A6A
:10014000521C8978002306F091FF012010BD0000A9
:10015000E0040020D0200020F50300202DE9FC5F02
:100160004548007800287DD0444D04230026297896
:10017000B146481C28704248007800EB400293408A
:100180005B1E0192994202DB85F8009001263D4AF0
:1001900000241188FF2901D2491C11803A4931F805
:1001A0001000384900900988884200D1012439495B
:1001B0000020DFF8D8804FF0010BDFF8D4A091F8D1
:1001C00000E045E0002276B11AF800105346FF29FE
:1001D00001D2491C195418F8001021B11AF8003046
:1001E0008B4200D30122019918F8007002238B4042
:1001F00007FA03F1009B994202DA0FB1012300E0F4
:1002000000233CB133B1D5F810C00BFA00F141EA3C
:100210000C0129612049095C8F420ED01AF8007048
:100220008F4208D3D5F810C00BFA00F747EA0C0745
:100230002F6185F8009008F800103AB123B92A69B7
:100240000BFA00F1114329610AF80090401CC0B27A
:100250007045B7D314B10B49A1F800902869002864
:1002600008D000E006E06888002803D1BDE8FC5F04
:10027000FFF742BEBDE8FC9FC5040020E804002053
:10028000C7040020F0030020F2860108F3030020D9
:10029000F2030020FA860108F40300200948094906
:1002A0008078C97810B1084A815409E0084A0020D2
:1002B000064B127802E01954401CC0B29042FAD3A7
:1002C00001207047E0040020F3030020F403002025
:1002D000FA860108034810B5807806F057FF012020
:1002E00010BD0000E00400200C4908B5C8780022C9
:1002F000012804D0022804D0032806D103E00020FE
:1003000008BD074A00E0074A521C00230093CB882F
:10031000897806F03DFF012008BD0000E0040020C0
:1003200011210020F50300202DE9F041EFF31080AA
:1003300072B6DFF8D8800022D8F8104080F3108819
:10034000C8F81020600507D501F08EF906F0CAFF45
:100350002F48006800B18047200505D501F01CFA40
:100360002C48006800B18047E00405D501F020FA70
:100370002948006800B18047A00503D527480068D8
:1003800000B18047264D600403D5296809B10220D9
:100390008847244FA00427D5296829B3012022E0EB
:1003A000EFF3108372B620480B2250F82100491C4D
:1003B000B1FBF2F602FB161183F3108886B2050C2E
:1003C000C8F80810280604D557F8261009B10820E7
:1003D0008847280408D557F8261029B1280501D5E3
:1003E000022000E00420884720040DD5EFF310829E
:1003F00072B6D8E90210814201D1012000E000204C
:1004000082F310880028CBD0BDE8F081F8030020EB
:1004100014870108188701081C8701082087010834
:10042000248701082887010814220020064810B5F7
:10043000C16941F40001C161142001F049FA034986
:100440004FF40040086010BD001002401408014045
:1004500070B500F005F900281CD00F4802220F4D9E
:10046000027042700E4C03202A632870A068022894
:1004700003D9A4F11F008260A2600A4806490078EF
:1004800040F0800001F09EF9A068296B401AA0603E
:100490000120207370BD0000522100200C050020B7
:1004A000A328002000870108114910B50878022808
:1004B00008D0032810D0042812D0052801D100202C
:1004C000087010BD0B48C07B282801D0A828F8D19F
:1004D000BDE8104000F064BABDE8104000F03CBD3B
:1004E0000548007840F0800000F04EFDF4E7000081
:1004F0000C0500208428002000870108204A10B540
:10050000117869B301290ED01E48052900781BD047
:1005100007292BD000F038FD1B4902200873BDE8E5
:10052000104000F019BD18481F38C07B2A2803D09E
:100530002F2805D0AA2822D1BDE8104000F004BB26
:10054000BDE8104000F096BA012181400F480068D4
:10055000014201D0012000E0002040F23F4200E0D3
:1005600009E0BDE810400AA101F06BBA002010704C
:10057000106B1F2803D1BDE8104000F0D5B810BDA6
:100580000C05002001870108A3280020D0040020CA
:100590002E2E5C2E2E5C2E2E5C736F757263655C46
:1005A0007573625C6D73635C757362645F6D7363B6
:1005B0002E630000104910B54868C86008B10120DA
:1005C00010BD0E4800F11F0482687AB1007B00065E
:1005D00004D50B48007840F0800005E0A068096B66
:1005E000884203D00748007800F0CEFC0120207339
:1005F00000F0B2FC002010BD0C0500208428002073
:1006000000870108018701081048007900F08F0178
:10061000080605D501F00F004FF48032824001E05A
:1006200001228A400A48007840F0800088420CD1BC
:1006300008490968114208D00749084A09689142E7
:1006400003D10D22044901F0BDB87047E004002039
:1006500000870108D0040020A328002055534253EE
:1006600070B50A48022400F11F05816831B1007B92
:10067000000608D40648007800F086FC2C7300F0D1
:100680006BFC002070BD012070BD0000842800209C
:100690000187010810B50E480E4C8068216B884216
:1006A00002D82063032000E0042020700A480B4990
:1006B000226B007840F0800001F084F80448226B3F
:1006C0001F308168891A81600021017310BD00000C
:1006D000842800200C0500200087010852210020FA
:1006E000064810B5028807480549007800F0ACFCC0
:1006F00005490863BDE81040FFF700BF0687010801
:1007000052210020018701080C05002010B5044685
:10071000400702D50020FFF7E3FF200703D5BDE81F
:100720001040FFF7C1BE10BD2DE9F047734E326B8C
:100730001F2A01D2134600E01F230020704D71498B
:1007400002E00C5C2C54401C9842FAD3DFF8BC91B8
:100750000127DFF8B4A199F800001F2A40F08000BB
:100760007ED129686A4A91427AD1654C69681F3402
:100770006160A968A160697B19B9A97B09B11029D9
:1007800001D927738AE0E97B4FF002082A293ED07D
:1007900022DC1A294FD00FDC0429F2D006DCE9B3A1
:1007A0000329EED1BDE8F04700F05CBB1229E8D187
:1007B000BDE8F04700F0B8B8232944D007DC1B2976
:1007C00035D01E29DDD1BDE8F04700F0DBB8252982
:1007D0003DD02829D5D148E09E2940D00FDC5529AD
:1007E000CFD004DC2F2954D03529CAD103E05A29AF
:1007F00025D09129C5D1BDE8F04700F0F5BBA1296E
:1008000029D0A3295DD0A8292FD0AA29B9D100F0D9
:1008100075FA002805D0287B000600E003E04BD4E1
:100820003770BDE8F087BDE8F04700F0E5BBBDE8F4
:10083000F04700F0BFBBBDE8F04700F037BABDE8B5
:10084000F04700F007BABDE8F04700F0D5BABDE8C0
:10085000F04700F0A9BABDE8F047FFF7F9BD00E0A6
:1008600032E0BDE8F04700F051BB00F047FA002845
:10087000D7D0287B000605D586F80080BDE8F04774
:1008800000F08EB89AF8000000F07EFB84F80C802F
:1008900004E0287C800705D400202073BDE8F047E1
:1008A00000F05ABB00F02AFA0028BAD0287B0006D4
:1008B00002D437703762B4E799F8000040F0800046
:1008C000E2E700F061FB5CE74C4600F05DFB20785E
:1008D000104C00F00F014FF48030884021685546DD
:1008E000084320609AF8000000F04EFB287887400B
:1008F0002068074306202760307092E70C0500202F
:100900008428002052210020018701080087010867
:1009100055534243D40400200249002008700120AE
:10092000704700009020002010B5FFF799FE0028C6
:1009300020D0114B0020802118705970022199702D
:10094000D97020241C7158719871D8710B480168B6
:1009500008200A7812B11A54491C00E01C54401CAB
:10096000C0B22428F5D3064924200863BDE810400E
:10097000FFF790BE10BD000052210020A803002008
:100980000C0500200548C07CC107044800F11F0089
:1009900000D00121017300F0DFBA0000842800209C
:1009A0002DE9F0412E4D2F4F0026A969686ADFF826
:1009B000B88088420AD33878002440F0800000F0E4
:1009C000E3FA88F80C6000F0C7FA08E028492748E5
:1009D000097830F81140E86A844200D30446FFF7F2
:1009E000E9FD00B90024A86A48B374B1A96AE869AE
:1009F00022460144387840F0800000F0E3FEA86A07
:100A00002044A862E86A001BE862D5E90410AA6ADB
:100A10004143914203D1AE62696A08446862D8F8E2
:100A200008104046091BC8F80810002C05D0E96AD8
:100A3000002902D1032129700673BDE8F081002C42
:100A4000E3D0E96A28690144491EB1FBF0F2686904
:100A5000824200D90246E969686A06F0FBFBC5E7F5
:100A60000C05002000870108A32800200287010848
:100A7000C70400202DE9F0412F4C00252F4EA1691D
:100A8000606A884207D32E482563007800F07CFA1C
:100A9000357300F061FAFFF78DFD20B1206B08B3CC
:100AA000A06A10B10FE0256320E0E16A20690144EB
:100AB000491EB1FBF0F26069824200D90246E16949
:100AC000606A06F0C7FB00201E49A36A226B0BE098
:100AD000D4F81CC01F181CF8077011F800C0674537
:100AE00001D0256202E0401C9042F1D3A16A206B44
:100AF0000A18A262E16A0B1AE362D4E904714F4357
:100B0000974203D1A562626A11446162B168091A11
:100B1000B16000280DD013B12078052809D1206AD2
:100B200028B100203073BDE8F04100F015BA012073
:100B3000F8E7BDE8F08100000C050020A3280020A4
:100B400001870108522100202DE9F041344D002693
:100B5000344FA969686A884207D333482E63007806
:100B600000F012FA3E7300F0F7F9FFF723FD00B929
:100B70002E63296BA86A08442969884206D9BDE812
:100B8000F041FE2229A1002000F05BBF0020304987
:100B900005E0AB6AEC690A5C0344401CE2542A6B32
:100BA0009042F6D3A86A11000844A862EA6AA2EB50
:100BB0000102EA6222D092B988B129690844401E34
:100BC000B0FBF1F46869844200D904462246E96921
:100BD000686A06F059FBAE62686A20440DE0D5E908
:100BE000041202FB01F3834208D1E969686A06F046
:100BF0004BFBAE626969686A08446862B968286B31
:100C0000091AB960002809D0E86A10B128780528C7
:100C100004D13E73BDE8F04100F09EB9BDE8F0811B
:100C20000C050020A3280020018701082E2E5C2E31
:100C30002E5C2E2E5C736F757263655C7573625CDF
:100C40006D73635C757362645F6D73632E63000024
:100C50005221002010B5FFF703FD00281FD0FFF739
:100C6000A9FC00281BD00E480021062201700D4B64
:100C7000427081701A7AD201C27001714171817122
:100C8000C1710949082018638A68082A03D9A1F1AB
:100C90001F0290608860BDE81040FFF7FBBC10BDEC
:100CA000522100200C050020A328002010B5FFF7DA
:100CB000D7FC00281BD0FFF77DFC002817D00C487C
:100CC0000321002201700B4942700B7ADB01837013
:100CD000C2700420086308498A68042A03D9A1F174
:100CE0001F0290608860BDE81040FFF7D3BC10BDC4
:100CF000522100200C050020A328002070B5264CAE
:100D0000264DB4F81100E17C40BA000440EA01210C
:100D1000207D01430020C5E90910E07B2F280AD07F
:100D200004DC28280BD02A2819D104E0A8280DD0EB
:100D3000AA2814D106E0FFF73DFC002829D0E08A5C
:100D400041BA0CE0FFF736FC002822D0B4F81500B9
:100D5000E17D40BA000440EA0121207E0143286978
:100D60000D4E4143E962A06801251F3668B18842F3
:100D700010D0207B000604D50948007840F08000A0
:100D800001E00848007800F0FFF8357300F0E4F85F
:100D9000002070BD012070BD842800200C050020BB
:100DA000008701080187010810B5FFF759FC0028EA
:100DB0001CD0FFF7FFFB002818D00D4A0D489169A1
:100DC000491E0B0E03700B0C43700B0A8370C1702D
:100DD00011690B0E03710B0C43710B0A8371C17106
:100DE00008201063BDE81040FFF754BC10BD0000A0
:100DF0000C0500205221002010B5FFF731FC00281F
:100E000029D0FFF7D7FB002825D013480021134A2B
:100E10000170417081700821C17091690B0E0371DE
:100E20000B0C43710B0A8371C171022101721169AC
:100E30000B0C43720B0A8372C17209490C201063B8
:100E40008A680C2A03D9A1F11F0290608860BDE86E
:100E50001040FFF71FBC10BD522100200C050020E0
:100E6000A328002010B5FFF7FBFB002835D01B4856
:100E700070211B4B017000214170DC685A6832EA16
:100E8000040406D006248470282404734173DA60B5
:100E900008E0DAB1134A127BE2B105228270202207
:100EA00002734173C1700171417181710A22C27173
:100EB000017241728172C1728173C1730174417494
:100EC00012201863BDE81040FFF7E4BB02228270D5
:100ED0003A22E5E781700173E3E710BD522100205B
:100EE0000C050020A32800200449002008600449C4
:100EF000086004490720087001207047D4040020CE
:100F0000A32800200C050020FFF7EEBF10B5FFF767
:100F1000A7FB002817D00C48202200210270417046
:100F20000A4CC177032022632070094806490078E3
:100F300040F0800000F046FC0648226B8168891A68
:100F400081600121017310BD522100200C05002099
:100F500000870108A3280020084910B5064808604A
:100F600007480D22007840F0800000F02BFC054976
:100F70000520087010BD000055534253A3280020DF
:100F8000008701080C05002010B5044600F0E0FBC6
:100F9000200605D504F00F014FF48030884001E0B1
:100FA0000120A04002490A681043086010BD0000FB
:100FB000D00400200A4810B5817C00F11F0429B13B
:100FC00001202073BDE81040FFF7C6BFC07C054973
:100FD00000F00100486006F055F90020F1E700003C
:100FE000842800200C050020024900200873FFF728
:100FF000B3BF0000A32800200F4810B5816800F19E
:101000001F0469B1007B000604D50C48007840F04D
:10101000800001E00A480078FFF7B6FF012004E0F5
:10102000FFF7C8FA002805D000202073BDE8104063
:10103000FFF792BF10BD0000842800200087010840
:10104000018701087047000070B5104C00F00F03D5
:101050000F4D646804EB03139C689B8905EB440403
:10106000C3F30905954200D9154600236A1C04E024
:1010700034F8046B21F8026B5B1CB3EB520FF7D30F
:101080004FF44051FCF748FA284670BDF8030020A1
:1010900000600040FFF7B8BA2DE9FC414E4BA3F1C8
:1010A0001C051878A3F1080410F01F0002D00128D5
:1010B0006DD179E04949D878494E0A784649494F77
:1010C0001C390628C97810D006DC012809D002286E
:1010D00014D003287ED141E007282AD00F2879D1E7
:1010E00056E04148206012205CE0002A72D019B11D
:1010F0003E4820600A2055E03D48FAE70AB9012938
:1011000068D0022021B10097787000209A7809E019
:1011100000967070F9E700990B7813B14B88194469
:101120000091401C8242F6D10098017879B320608A
:1011300037E062B3072021B10096707000209A78E2
:1011400009E000977870F9E700990B7813B14B88A4
:1011500019440091401C8242F6D1E5E725480090F1
:101160009878032801D0002008E002F0E3F80BE0B3
:1011700000990A780AB111440091401C9978814283
:10118000F6D10098017811B1206000780AE021E0E2
:101190001948007800281BD018480090206001787A
:1011A000C1B14088019005E001A9684600F02AF825
:1011B00000280DD0A1880198814208D9104980B239
:1011C000A0800978491E084201D101202871012020
:1011D000BDE8FC810020FBE7E0040020ED8601086B
:1011E000C81F0020F602002098870108AB8701087D
:1011F000AA870108E6870108EE860108AC87010886
:10120000EF86010870B5194A194C1B4ED378194A5C
:101210002578212B1478154A127902D0222B22D15D
:1012200016E0AA4201D0A2421DD1144A1378144AF2
:1012300012780BB9012A16D042B1124A0260104648
:10124000114A128810443060092009E00F4AF5E77E
:10125000AA4201D0A24206D10D4830600D48008854
:101260000860012070BD002070BD0000E004002077
:10127000F7020020F9020020D8040020ED860108C2
:10128000C7040020F6020020FC020020C81F002036
:10129000748701089687010870B51C481B4C0078BC
:1012A000A4F1080410F01F000AD0184AA4F1140396
:1012B000174D59781279012806D0022824D109E067
:1012C0001248163820601DE0F1B1987882421BD296
:1012D000002015E002F08F00020605D500F00F0691
:1012E0004FF48032B24001E00122824009B9000788
:1012F0000AD19868104207D0D868104000D0012069
:1013000028802560012070BD002070BDE004002011
:101310009020002070B5264B02461946187849885F
:1013200010F01F00A3F11C0604D0012829D00228C8
:1013300027D111E0012924D132B1012000F040FA77
:10134000F08840F0020005E0002000F039FAF08853
:1013500020F00200F08029E0187900F08F042006C8
:1013600005D504F00F004FF48035854001E00125DC
:10137000A540707828B1200703D0B068284200D07B
:1013800009B1002070BD2AB1204600F0E1F9F068F3
:1013900028430AE03069284208D12046FEF774FA53
:1013A0002046FFF777FEF068A843F060012070BD8B
:1013B000E00400202DE9F05F5A480026017811F082
:1013C0001F0F7DD1574F80781C3FB1464FF0010A67
:1013D0004FF4803B00287AD0534801783846C078D3
:1013E00009B901286CD008B1504C6CE0504C6AE04F
:1013F0006078022805D0042845D0052845D0072864
:101400005CD148486179807881423AD178702079FE
:101410004949B8700020474A098802E002F8009064
:10142000401C8842FAD30125B8460AFA05F0D8F8DC
:101430000810084202D02846FEF7C9FAD8F808106A
:101440000BFA05F0084203D045F08000FEF7BFFA22
:101450006D1C102DE9D34FF00110C8E902090120DD
:10146000C8F81090FEF764FAE0794006B8F8060074
:1014700002D540F0010001E020F00100A8F80600CC
:101480001CE060881BE0E67818E0BEB9A07800F0A8
:101490008F05280604D505F00F010BFA01F001E0D5
:1014A0000AFA05F0B96801432046B960FEF7F8F979
:1014B0002846FEF78FFA284600F02EF9207801E042
:1014C0002BE004E004442078002891D120E04D4630
:1014D00087F8019001245E46B9680AFA04F00842D0
:1014E00002D02046FEF773FAB96806FA04F0084203
:1014F00003D044F08000FEF76AFA641C102CEBD392
:101500004FF00110C7E9020500203D61FEF710FA17
:10151000044879788078884202D00020BDE8F09FA6
:101520000120FBE7E0040020ED860108F602002020
:10153000C81F0020EB030020FA0200202DE9F84F1D
:10154000444800273E460078BA4600F01F00B946DE
:1015500001287CD13F491C394878002874D00020EC
:1015600000903D4802780846C0780AB901286ED03C
:101570008B4608B1394C63E0394C61E06078022851
:1015800005D004280AD005281AD0072856D1617939
:101590009BF80100814251D0608850E02D48A77827
:1015A000E67801794FF00009B94247D18078B0421E
:1015B00044D1012000902B4810F807A0C6553DE00B
:1015C00024490879B84239D1A07800F08F085FEA41
:1015D000086005D508F00F004FF48035854002E023
:1015E000012505FA08F58878B04215D1DBF8081016
:1015F00020462943CBF80810DBF80C10A943CBF8A0
:101600000C10FEF74DF94046FEF7E4F9404600F0B5
:1016100083F849EA050911E056450FD119EA050F8B
:101620000CD1DBF808104046A943CBF80810DBF8D2
:101630000C10A943CBF80C10FEF7C9F9207804442C
:10164000207800289AD10098BDE8F88FFFE70020A5
:10165000FAE70000E0040020ED860108F602002011
:10166000C81F0020EB0300204FF0E0214FF4801052
:101670000023C1F88001BFF34F8FBFF36F8F1E4867
:1016800003601E48006818B14FF40050410001E0AB
:101690000020014608431A490968002901D04FF487
:1016A000007140EA010002D04FF4807101E04FF078
:1016B000000140EA0100134940F41C40086013484F
:1016C00011494FF050020360486802604FF09002E9
:1016D00082604FF0D0020A8048F2FF71C1600C496D
:1016E0004FF4485008600B494FF0800008604FF0FD
:1016F000140000F0EDB80000445C004024870108AD
:1017000020870108405C0040F8030020505C004046
:10171000005C00404C5C0040FBF7EABE10B5FEF7F1
:101720002DF8BDE81040FFF7EFBB10B5FEF716FD32
:10173000FEF728F800F0ABF910BD0000002903D136
:10174000024940F080000860704700004C5C004097
:1017500041F21001FBF7E0BE082202490020FFF72A
:1017600073BC0000E004002002484FF400710069DF
:1017700002F06CB94C00002000221146802000F0DD
:1017800021B800000248034902780020FFF75CBC42
:10179000EF860108902000200448016841F008010C
:1017A0000160016841F0040101607047405C004045
:1017B0000248016821F0080101607047405C004068
:1017C00070470000F0B5154F154606467A6800F0E0
:1017D0000F0002EB0012124B126803EB42040023CD
:1017E0006A1C04E031F802CB44F804CB5B1CB3EB79
:1017F000520FF7D3796801EB00114D60094901EBF5
:101800008000D0F8000CC0F30110012803D0302173
:101810003046FBF781FE2846F0BD0000F8030020AB
:1018200000600040005000402DE9F047244A106855
:10183000244F20F01F013B691943396100F4FE4138
:10184000C9431160DFF88090000448F2800632D569
:101850009046D8F8000001042DD510F00F0009EBD8
:101860008005D5F8004C07D1210405D5210503D406
:1018700079688989890515D064F31F4003F0C2FD9A
:10188000200406D544EA060040F68F710840C5F8EA
:10189000000C2006DDD5344348F60F700440C5F82F
:1018A000004CD6E72106EDD5C4F30E0161F31F40CD
:1018B00003F0A8FDE6E7BDE8F047FFF755BF0000DD
:1018C000445C0040F80300200050004000207047B6
:1018D000002809DB00F01F0201219140400980002F
:1018E00000F1E020C0F8001170470000EFF3088419
:1018F00000F00F010D2901D1EFF30984A18B04F150
:101900002005890500D52D1DC10600D4483500F0FD
:101910007FFAEFF3098000F07BFAEFF3088000F024
:1019200077FAEFF3148000F073FA284600F070FAAB
:10193000606900F06DFAA06900F06AFAE06900F0F1
:1019400067FA1248006800F063FA1048001F006848
:1019500000F05EFA0D48001D006800F059FA0B48CF
:101960001030006800F054FA08480830006800F0B1
:101970004FFA06480C30006800F04AFA432204A1EE
:10198000002000F05EF8FDF733FBFEE72CED00E0F1
:101990002E2E5C2E2E5C2E2E5C736F757263655C32
:1019A0006461706C696E6B5C486172644661756CF1
:1019B000745F48616E646C65722E630010B5002A16
:1019C00006DA22F00042D21D22F00703102203E0C3
:1019D000D21C22F003030C2213B19C188C4201D9B3
:1019E000012010BD024401448360C0E90021C91AEE
:1019F000D018884202D810600246F9E70020106033
:101A000010BD000010B5044603F072FB002805D09D
:101A10004FF6FF71DFF808C0206800DF10BD00003E
:101A2000A94B010810B5044603F062FB002803D05F
:101A3000DFF808C0206800DF10BD0000F94A010887
:101A400070472DE9F04116460F46002818D1EFF3F4
:101A5000108572B600231A461946184600F0F8F9A8
:101A6000040003D13146384600F04EFA85F3108861
:101A7000002C05D1EFF30380C00601D105F030FF43
:101A8000BDE8F0817047704700207047704770478D
:101A90007047704710B528220D490E48FAF7A2FD8D
:101AA00005F0E0FF0C4805F0D7FF05F009FE0B49F3
:101AB0000B4A0C4B08604FF40071B0FBF1F0116061
:101AC000094901221A60086009490848086010BDE8
